{
  "contractName": "School",
  "abi": [
    {
      "constant": true,
      "inputs": [
        {
          "internalType": "address",
          "name": "",
          "type": "address"
        }
      ],
      "name": "funder",
      "outputs": [
        {
          "internalType": "uint256",
          "name": "id",
          "type": "uint256"
        },
        {
          "internalType": "string",
          "name": "name",
          "type": "string"
        },
        {
          "internalType": "string",
          "name": "job",
          "type": "string"
        },
        {
          "internalType": "address payable",
          "name": "funderaddress",
          "type": "address"
        }
      ],
      "payable": false,
      "stateMutability": "view",
      "type": "function"
    },
    {
      "constant": true,
      "inputs": [],
      "name": "fundercount",
      "outputs": [
        {
          "internalType": "uint256",
          "name": "",
          "type": "uint256"
        }
      ],
      "payable": false,
      "stateMutability": "view",
      "type": "function"
    },
    {
      "constant": true,
      "inputs": [],
      "name": "fundlogcount",
      "outputs": [
        {
          "internalType": "uint256",
          "name": "",
          "type": "uint256"
        }
      ],
      "payable": false,
      "stateMutability": "view",
      "type": "function"
    },
    {
      "constant": true,
      "inputs": [],
      "name": "schoolcount",
      "outputs": [
        {
          "internalType": "uint256",
          "name": "",
          "type": "uint256"
        }
      ],
      "payable": false,
      "stateMutability": "view",
      "type": "function"
    },
    {
      "constant": true,
      "inputs": [
        {
          "internalType": "uint256",
          "name": "",
          "type": "uint256"
        }
      ],
      "name": "schoolstruct",
      "outputs": [
        {
          "internalType": "uint256",
          "name": "id",
          "type": "uint256"
        },
        {
          "internalType": "string",
          "name": "sname",
          "type": "string"
        },
        {
          "internalType": "string",
          "name": "location",
          "type": "string"
        },
        {
          "internalType": "address payable",
          "name": "schooladdress",
          "type": "address"
        },
        {
          "internalType": "uint256",
          "name": "fundingamount",
          "type": "uint256"
        }
      ],
      "payable": false,
      "stateMutability": "view",
      "type": "function"
    },
    {
      "constant": false,
      "inputs": [
        {
          "internalType": "string",
          "name": "_sname",
          "type": "string"
        },
        {
          "internalType": "string",
          "name": "_location",
          "type": "string"
        }
      ],
      "name": "registerschool",
      "outputs": [],
      "payable": false,
      "stateMutability": "nonpayable",
      "type": "function"
    },
    {
      "constant": false,
      "inputs": [
        {
          "internalType": "string",
          "name": "_name",
          "type": "string"
        },
        {
          "internalType": "string",
          "name": "_job",
          "type": "string"
        }
      ],
      "name": "registerfunder",
      "outputs": [],
      "payable": false,
      "stateMutability": "nonpayable",
      "type": "function"
    },
    {
      "constant": false,
      "inputs": [
        {
          "internalType": "uint256",
          "name": "_id",
          "type": "uint256"
        }
      ],
      "name": "fundschool",
      "outputs": [],
      "payable": true,
      "stateMutability": "payable",
      "type": "function"
    }
  ],
  "bytecode": "0x6080604052600080556000600155600060025534801561001e57600080fd5b506110148061002e6000396000f3fe60806040526004361061007b5760003560e01c806341fe98ab1161004e57806341fe98ab146104dc578063967ea85a146105075780639770e74014610668578063ec62df70146106935761007b565b806312cd24be1461008057806323d581e4146101f05780632bd80d6e1461021e578063417f3bf91461037d575b600080fd5b34801561008c57600080fd5b506100cf600480360360208110156100a357600080fd5b81019080803573ffffffffffffffffffffffffffffffffffffffff1690602001909291905050506106be565b6040518085815260200180602001806020018473ffffffffffffffffffffffffffffffffffffffff1673ffffffffffffffffffffffffffffffffffffffff168152602001838103835286818151815260200191508051906020019080838360005b8381101561014b578082015181840152602081019050610130565b50505050905090810190601f1680156101785780820380516001836020036101000a031916815260200191505b50838103825285818151815260200191508051906020019080838360005b838110156101b1578082015181840152602081019050610196565b50505050905090810190601f1680156101de5780820380516001836020036101000a031916815260200191505b50965050505050505060405180910390f35b61021c6004803603602081101561020657600080fd5b810190808035906020019092919050505061083e565b005b34801561022a57600080fd5b5061037b6004803603604081101561024157600080fd5b810190808035906020019064010000000081111561025e57600080fd5b82018360208201111561027057600080fd5b8035906020019184600183028401116401000000008311171561029257600080fd5b91908080601f016020809104026020016040519081016040528093929190818152602001838380828437600081840152601f19601f820116905080830192505050505050509192919290803590602001906401000000008111156102f557600080fd5b82018360208201111561030757600080fd5b8035906020019184600183028401116401000000008311171561032957600080fd5b91908080601f016020809104026020016040519081016040528093929190818152602001838380828437600081840152601f19601f820116905080830192505050505050509192919290505050610b40565b005b34801561038957600080fd5b506104da600480360360408110156103a057600080fd5b81019080803590602001906401000000008111156103bd57600080fd5b8201836020820111156103cf57600080fd5b803590602001918460018302840111640100000000831117156103f157600080fd5b91908080601f016020809104026020016040519081016040528093929190818152602001838380828437600081840152601f19601f8201169050808301925050505050505091929192908035906020019064010000000081111561045457600080fd5b82018360208201111561046657600080fd5b8035906020019184600183028401116401000000008311171561048857600080fd5b91908080601f016020809104026020016040519081016040528093929190818152602001838380828437600081840152601f19601f820116905080830192505050505050509192919290505050610c41565b005b3480156104e857600080fd5b506104f1610d5d565b6040518082815260200191505060405180910390f35b34801561051357600080fd5b506105406004803603602081101561052a57600080fd5b8101908080359060200190929190505050610d63565b6040518086815260200180602001806020018573ffffffffffffffffffffffffffffffffffffffff1673ffffffffffffffffffffffffffffffffffffffff168152602001848152602001838103835287818151815260200191508051906020019080838360005b838110156105c25780820151818401526020810190506105a7565b50505050905090810190601f1680156105ef5780820380516001836020036101000a031916815260200191505b50838103825286818151815260200191508051906020019080838360005b8381101561062857808201518184015260208101905061060d565b50505050905090810190601f1680156106555780820380516001836020036101000a031916815260200191505b5097505050505050505060405180910390f35b34801561067457600080fd5b5061067d610ee9565b6040518082815260200191505060405180910390f35b34801561069f57600080fd5b506106a8610eef565b6040518082815260200191505060405180910390f35b6003602052806000526040600020600091509050806000015490806001018054600181600116156101000203166002900480601f0160208091040260200160405190810160405280929190818152602001828054600181600116156101000203166002900480156107705780601f1061074557610100808354040283529160200191610770565b820191906000526020600020905b81548152906001019060200180831161075357829003601f168201915b505050505090806002018054600181600116156101000203166002900480601f01602080910402602001604051908101604052809291908181526020018280546001816001161561010002031660029004801561080e5780601f106107e35761010080835404028352916020019161080e565b820191906000526020600020905b8154815290600101906020018083116107f157829003601f168201915b5050505050908060030160009054906101000a900473ffffffffffffffffffffffffffffffffffffffff16905084565b60008111801561085057506000548110155b61085957600080fd5b610861610ef5565b600460008381526020019081526020016000206040518060a001604052908160008201548152602001600182018054600181600116156101000203166002900480601f0160208091040260200160405190810160405280929190818152602001828054600181600116156101000203166002900480156109225780601f106108f757610100808354040283529160200191610922565b820191906000526020600020905b81548152906001019060200180831161090557829003601f168201915b50505050508152602001600282018054600181600116156101000203166002900480601f0160208091040260200160405190810160405280929190818152602001828054600181600116156101000203166002900480156109c45780601f10610999576101008083540402835291602001916109c4565b820191906000526020600020905b8154815290600101906020018083116109a757829003601f168201915b505050505081526020016003820160009054906101000a900473ffffffffffffffffffffffffffffffffffffffff1673ffffffffffffffffffffffffffffffffffffffff1673ffffffffffffffffffffffffffffffffffffffff16815260200160048201548152505090506000816060015190508073ffffffffffffffffffffffffffffffffffffffff166108fc349081150290604051600060405180830381858888f19350505050158015610a7e573d6000803e3d6000fd5b50348260800151018260800181815250508160046000858152602001908152602001600020600082015181600001556020820151816001019080519060200190610ac9929190610f3a565b506040820151816002019080519060200190610ae6929190610f3a565b5060608201518160030160006101000a81548173ffffffffffffffffffffffffffffffffffffffff021916908373ffffffffffffffffffffffffffffffffffffffff16021790555060808201518160040155905050505050565b60008081548092919060010191905055506040518060a0016040528060005481526020018381526020018281526020013373ffffffffffffffffffffffffffffffffffffffff16815260200160008152506004600080548152602001908152602001600020600082015181600001556020820151816001019080519060200190610bcb929190610f3a565b506040820151816002019080519060200190610be8929190610f3a565b5060608201518160030160006101000a81548173ffffffffffffffffffffffffffffffffffffffff021916908373ffffffffffffffffffffffffffffffffffffffff160217905550608082015181600401559050505050565b600160008154809291906001019190505550604051806080016040528060015481526020018381526020018281526020013373ffffffffffffffffffffffffffffffffffffffff16815250600360003373ffffffffffffffffffffffffffffffffffffffff1673ffffffffffffffffffffffffffffffffffffffff168152602001908152602001600020600082015181600001556020820151816001019080519060200190610cf1929190610f3a565b506040820151816002019080519060200190610d0e929190610f3a565b5060608201518160030160006101000a81548173ffffffffffffffffffffffffffffffffffffffff021916908373ffffffffffffffffffffffffffffffffffffffff1602179055509050505050565b60005481565b6004602052806000526040600020600091509050806000015490806001018054600181600116156101000203166002900480601f016020809104026020016040519081016040528092919081815260200182805460018160011615610100020316600290048015610e155780601f10610dea57610100808354040283529160200191610e15565b820191906000526020600020905b815481529060010190602001808311610df857829003601f168201915b505050505090806002018054600181600116156101000203166002900480601f016020809104026020016040519081016040528092919081815260200182805460018160011615610100020316600290048015610eb35780601f10610e8857610100808354040283529160200191610eb3565b820191906000526020600020905b815481529060010190602001808311610e9657829003601f168201915b5050505050908060030160009054906101000a900473ffffffffffffffffffffffffffffffffffffffff16908060040154905085565b60025481565b60015481565b6040518060a00160405280600081526020016060815260200160608152602001600073ffffffffffffffffffffffffffffffffffffffff168152602001600081525090565b828054600181600116156101000203166002900490600052602060002090601f016020900481019282601f10610f7b57805160ff1916838001178555610fa9565b82800160010185558215610fa9579182015b82811115610fa8578251825591602001919060010190610f8d565b5b509050610fb69190610fba565b5090565b610fdc91905b80821115610fd8576000816000905550600101610fc0565b5090565b9056fea265627a7a723158207214f55fdcb3f451d6f34df42e7394d20ec02381f519705b6cffa97ce4d803d764736f6c634300050c0032",
  "source": "pragma solidity ^0.5.0;\n\ncontract School\n{\n    uint public schoolcount=0;\n    uint public fundercount=0;\n    uint public fundlogcount=0;\n\n    struct Schoolstruct{\n        uint id;\n        string sname;\n        string location;\n        address payable schooladdress;\n        uint fundingamount;\n    }\n\n    // struct Fundlog{\n    //     uint fundlogid;\n    //     address payable fundsender;\n    //     address payable fundreseviver;\n    //     //need to show who gave the money\n    //     uint funderid;\n\n    // }\n\n    struct Funder{\n        uint id;\n        string name;\n        string job;\n        address payable funderaddress;\n\n    }\n\n    mapping (address=>Funder) public funder;\n    mapping(uint=>Schoolstruct) public schoolstruct;\n    //mapping (uint=>Fundlog) public fundlog;\n\n    function registerschool(string memory _sname,string memory _location) public\n    {\n        schoolcount++;\n        schoolstruct[schoolcount] = Schoolstruct(schoolcount,_sname,_location,msg.sender,0);\n    }\n    function registerfunder(string memory _name,string memory _job) public {\n\n        fundercount++;\n        funder[msg.sender] = Funder(fundercount,_name,_job,msg.sender);\n\n\n    }\n\n    // function fundschool(uint _id) public payable {\n    //     require(_id > 0 && _id >= schoolcount);\n    //     Schoolstruct memory _schoolstruct = schoolstruct[_id];\n    //     address payable _schooladdress = _schoolstruct.schooladdress;\n\n    //     //pay the author\n    //     address(_schooladdress).transfer(msg.value);\n    //     _schoolstruct.fundingamount = _schoolstruct.fundingamount+msg.value;\n    //     schoolstruct[_id] =_schoolstruct;\n    //     uint _funderid = 0;\n    //     for(uint i = 1;i <= fundercount; i++)\n    //      {\n    //          if(funder[i].funderaddress==msg.sender)\n    //             {\n    //                 _funderid = i;\n    //                 break;\n\n    //             }\n\n    //      }\n    //     fundlogcount++;\n    //     fundlog[fundlogcount] = Fundlog(fundlogcount,msg.sender,_schooladdress,_funderid);\n\n\n    // }\n\n\n     function fundschool(uint _id) public payable {\n        require(_id > 0 && _id >= schoolcount);\n        Schoolstruct memory _schoolstruct = schoolstruct[_id];\n        address payable _schooladdress = _schoolstruct.schooladdress;\n\n        //pay the author\n        address(_schooladdress).transfer(msg.value);\n        _schoolstruct.fundingamount = _schoolstruct.fundingamount+msg.value;\n        schoolstruct[_id] =_schoolstruct;\n        \n    }\n\n\n\n\n}",
  "sourcePath": "/home/sanjay/hackthon/teacherbasic/src/contracts/School.sol",
  "compiler": {
    "name": "solc",
    "version": "0.5.12+commit.7709ece9.Emscripten.clang"
  },
  "schemaVersion": "3.0.19",
  "updatedAt": "2020-01-12T04:18:23.020Z",
  "networkType": "ethereum",
  "devdoc": {
    "methods": {}
  },
  "userdoc": {
    "methods": {}
  }
}