{
  "contractName": "SocialNetwork",
  "abi": [
    {
      "anonymous": false,
      "inputs": [
        {
          "indexed": false,
          "internalType": "uint256",
          "name": "id",
          "type": "uint256"
        },
        {
          "indexed": false,
          "internalType": "string",
          "name": "sname",
          "type": "string"
        },
        {
          "indexed": false,
          "internalType": "uint8",
          "name": "age",
          "type": "uint8"
        },
        {
          "indexed": false,
          "internalType": "string",
          "name": "degree",
          "type": "string"
        },
        {
          "indexed": false,
          "internalType": "string",
          "name": "content",
          "type": "string"
        },
        {
          "indexed": false,
          "internalType": "address payable",
          "name": "author",
          "type": "address"
        }
      ],
      "name": "PostCreated",
      "type": "event"
    },
    {
      "anonymous": false,
      "inputs": [
        {
          "indexed": false,
          "internalType": "string",
          "name": "subjectname",
          "type": "string"
        },
        {
          "indexed": false,
          "internalType": "string",
          "name": "notehash",
          "type": "string"
        }
      ],
      "name": "subjectevent",
      "type": "event"
    },
    {
      "constant": true,
      "inputs": [],
      "name": "postcount",
      "outputs": [
        {
          "internalType": "uint256",
          "name": "",
          "type": "uint256"
        }
      ],
      "payable": false,
      "stateMutability": "view",
      "type": "function"
    },
    {
      "constant": true,
      "inputs": [
        {
          "internalType": "uint256",
          "name": "",
          "type": "uint256"
        }
      ],
      "name": "posts",
      "outputs": [
        {
          "internalType": "uint256",
          "name": "id",
          "type": "uint256"
        },
        {
          "internalType": "string",
          "name": "sname",
          "type": "string"
        },
        {
          "internalType": "uint256",
          "name": "age",
          "type": "uint256"
        },
        {
          "internalType": "string",
          "name": "degree",
          "type": "string"
        },
        {
          "internalType": "string",
          "name": "resume",
          "type": "string"
        },
        {
          "internalType": "string",
          "name": "photo",
          "type": "string"
        },
        {
          "internalType": "string",
          "name": "content",
          "type": "string"
        },
        {
          "internalType": "uint256",
          "name": "tipAmount",
          "type": "uint256"
        },
        {
          "internalType": "address payable",
          "name": "author",
          "type": "address"
        }
      ],
      "payable": false,
      "stateMutability": "view",
      "type": "function"
    },
    {
      "constant": true,
      "inputs": [],
      "name": "subjectcount",
      "outputs": [
        {
          "internalType": "uint256",
          "name": "",
          "type": "uint256"
        }
      ],
      "payable": false,
      "stateMutability": "view",
      "type": "function"
    },
    {
      "constant": true,
      "inputs": [
        {
          "internalType": "uint256",
          "name": "",
          "type": "uint256"
        }
      ],
      "name": "subjects",
      "outputs": [
        {
          "internalType": "uint256",
          "name": "id",
          "type": "uint256"
        },
        {
          "internalType": "string",
          "name": "subjectname",
          "type": "string"
        },
        {
          "internalType": "string",
          "name": "notehash",
          "type": "string"
        },
        {
          "internalType": "address payable",
          "name": "creator",
          "type": "address"
        },
        {
          "internalType": "uint256",
          "name": "tipAmount",
          "type": "uint256"
        }
      ],
      "payable": false,
      "stateMutability": "view",
      "type": "function"
    },
    {
      "constant": false,
      "inputs": [
        {
          "internalType": "string",
          "name": "sname",
          "type": "string"
        },
        {
          "internalType": "uint8",
          "name": "age",
          "type": "uint8"
        },
        {
          "internalType": "string",
          "name": "degree",
          "type": "string"
        },
        {
          "internalType": "string",
          "name": "resume",
          "type": "string"
        },
        {
          "internalType": "string",
          "name": "photo",
          "type": "string"
        },
        {
          "internalType": "string",
          "name": "content",
          "type": "string"
        }
      ],
      "name": "createPost",
      "outputs": [],
      "payable": false,
      "stateMutability": "nonpayable",
      "type": "function"
    },
    {
      "constant": false,
      "inputs": [
        {
          "internalType": "string",
          "name": "name",
          "type": "string"
        },
        {
          "internalType": "string",
          "name": "notehash",
          "type": "string"
        }
      ],
      "name": "subjectupload",
      "outputs": [],
      "payable": false,
      "stateMutability": "nonpayable",
      "type": "function"
    },
    {
      "constant": false,
      "inputs": [
        {
          "internalType": "uint256",
          "name": "id",
          "type": "uint256"
        }
      ],
      "name": "displayprofiles",
      "outputs": [],
      "payable": false,
      "stateMutability": "nonpayable",
      "type": "function"
    },
    {
      "constant": false,
      "inputs": [
        {
          "internalType": "uint256",
          "name": "_id",
          "type": "uint256"
        }
      ],
      "name": "tipPost",
      "outputs": [],
      "payable": true,
      "stateMutability": "payable",
      "type": "function"
    }
  ],
  "bytecode": "0x608060405260008055600060015534801561001957600080fd5b50611bf9806100296000396000f3fe60806040526004361061007b5760003560e01c806374d3c1f81161004e57806374d3c1f81461091d5780638158738e1461094b578063a098f35f14610986578063bd9627c5146109b15761007b565b80630b1e7f83146100805780632c7424af1461032c578063570189d91461048d578063630bd285146107be575b600080fd5b34801561008c57600080fd5b506100b9600480360360208110156100a357600080fd5b81019080803590602001909291905050506109dc565b604051808a815260200180602001898152602001806020018060200180602001806020018881526020018773ffffffffffffffffffffffffffffffffffffffff1673ffffffffffffffffffffffffffffffffffffffff16815260200186810386528e818151815260200191508051906020019080838360005b8381101561014d578082015181840152602081019050610132565b50505050905090810190601f16801561017a5780820380516001836020036101000a031916815260200191505b5086810385528c818151815260200191508051906020019080838360005b838110156101b3578082015181840152602081019050610198565b50505050905090810190601f1680156101e05780820380516001836020036101000a031916815260200191505b5086810384528b818151815260200191508051906020019080838360005b838110156102195780820151818401526020810190506101fe565b50505050905090810190601f1680156102465780820380516001836020036101000a031916815260200191505b5086810383528a818151815260200191508051906020019080838360005b8381101561027f578082015181840152602081019050610264565b50505050905090810190601f1680156102ac5780820380516001836020036101000a031916815260200191505b50868103825289818151815260200191508051906020019080838360005b838110156102e55780820151818401526020810190506102ca565b50505050905090810190601f1680156103125780820380516001836020036101000a031916815260200191505b509e50505050505050505050505050505060405180910390f35b34801561033857600080fd5b506103656004803603602081101561034f57600080fd5b8101908080359060200190929190505050610d42565b6040518086815260200180602001806020018573ffffffffffffffffffffffffffffffffffffffff1673ffffffffffffffffffffffffffffffffffffffff168152602001848152602001838103835287818151815260200191508051906020019080838360005b838110156103e75780820151818401526020810190506103cc565b50505050905090810190601f1680156104145780820380516001836020036101000a031916815260200191505b50838103825286818151815260200191508051906020019080838360005b8381101561044d578082015181840152602081019050610432565b50505050905090810190601f16801561047a5780820380516001836020036101000a031916815260200191505b5097505050505050505060405180910390f35b34801561049957600080fd5b506107bc600480360360c08110156104b057600080fd5b81019080803590602001906401000000008111156104cd57600080fd5b8201836020820111156104df57600080fd5b8035906020019184600183028401116401000000008311171561050157600080fd5b91908080601f016020809104026020016040519081016040528093929190818152602001838380828437600081840152601f19601f820116905080830192505050505050509192919290803560ff1690602001909291908035906020019064010000000081111561057157600080fd5b82018360208201111561058357600080fd5b803590602001918460018302840111640100000000831117156105a557600080fd5b91908080601f016020809104026020016040519081016040528093929190818152602001838380828437600081840152601f19601f8201169050808301925050505050505091929192908035906020019064010000000081111561060857600080fd5b82018360208201111561061a57600080fd5b8035906020019184600183028401116401000000008311171561063c57600080fd5b91908080601f016020809104026020016040519081016040528093929190818152602001838380828437600081840152601f19601f8201169050808301925050505050505091929192908035906020019064010000000081111561069f57600080fd5b8201836020820111156106b157600080fd5b803590602001918460018302840111640100000000831117156106d357600080fd5b91908080601f016020809104026020016040519081016040528093929190818152602001838380828437600081840152601f19601f8201169050808301925050505050505091929192908035906020019064010000000081111561073657600080fd5b82018360208201111561074857600080fd5b8035906020019184600183028401116401000000008311171561076a57600080fd5b91908080601f016020809104026020016040519081016040528093929190818152602001838380828437600081840152601f19601f820116905080830192505050505050509192919290505050610ec8565b005b3480156107ca57600080fd5b5061091b600480360360408110156107e157600080fd5b81019080803590602001906401000000008111156107fe57600080fd5b82018360208201111561081057600080fd5b8035906020019184600183028401116401000000008311171561083257600080fd5b91908080601f016020809104026020016040519081016040528093929190818152602001838380828437600081840152601f19601f8201169050808301925050505050505091929192908035906020019064010000000081111561089557600080fd5b8201836020820111156108a757600080fd5b803590602001918460018302840111640100000000831117156108c957600080fd5b91908080601f016020809104026020016040519081016040528093929190818152602001838380828437600081840152601f19601f82011690508083019250505050505050919291929050505061121b565b005b6109496004803603602081101561093357600080fd5b810190808035906020019092919050505061131e565b005b34801561095757600080fd5b506109846004803603602081101561096e57600080fd5b8101908080359060200190929190505050611874565b005b34801561099257600080fd5b5061099b611ab1565b6040518082815260200191505060405180910390f35b3480156109bd57600080fd5b506109c6611ab7565b6040518082815260200191505060405180910390f35b6002602052806000526040600020600091509050806000015490806001018054600181600116156101000203166002900480601f016020809104026020016040519081016040528092919081815260200182805460018160011615610100020316600290048015610a8e5780601f10610a6357610100808354040283529160200191610a8e565b820191906000526020600020905b815481529060010190602001808311610a7157829003601f168201915b505050505090806002015490806003018054600181600116156101000203166002900480601f016020809104026020016040519081016040528092919081815260200182805460018160011615610100020316600290048015610b325780601f10610b0757610100808354040283529160200191610b32565b820191906000526020600020905b815481529060010190602001808311610b1557829003601f168201915b505050505090806004018054600181600116156101000203166002900480601f016020809104026020016040519081016040528092919081815260200182805460018160011615610100020316600290048015610bd05780601f10610ba557610100808354040283529160200191610bd0565b820191906000526020600020905b815481529060010190602001808311610bb357829003601f168201915b505050505090806005018054600181600116156101000203166002900480601f016020809104026020016040519081016040528092919081815260200182805460018160011615610100020316600290048015610c6e5780601f10610c4357610100808354040283529160200191610c6e565b820191906000526020600020905b815481529060010190602001808311610c5157829003601f168201915b505050505090806006018054600181600116156101000203166002900480601f016020809104026020016040519081016040528092919081815260200182805460018160011615610100020316600290048015610d0c5780601f10610ce157610100808354040283529160200191610d0c565b820191906000526020600020905b815481529060010190602001808311610cef57829003601f168201915b5050505050908060070154908060080160009054906101000a900473ffffffffffffffffffffffffffffffffffffffff16905089565b6003602052806000526040600020600091509050806000015490806001018054600181600116156101000203166002900480601f016020809104026020016040519081016040528092919081815260200182805460018160011615610100020316600290048015610df45780601f10610dc957610100808354040283529160200191610df4565b820191906000526020600020905b815481529060010190602001808311610dd757829003601f168201915b505050505090806002018054600181600116156101000203166002900480601f016020809104026020016040519081016040528092919081815260200182805460018160011615610100020316600290048015610e925780601f10610e6757610100808354040283529160200191610e92565b820191906000526020600020905b815481529060010190602001808311610e7557829003601f168201915b5050505050908060030160009054906101000a900473ffffffffffffffffffffffffffffffffffffffff16908060040154905085565b6000815111610ed657600080fd5b600080815480929190600101919050555060405180610120016040528060005481526020018781526020018660ff168152602001858152602001848152602001838152602001828152602001600081526020013373ffffffffffffffffffffffffffffffffffffffff168152506002600080548152602001908152602001600020600082015181600001556020820151816001019080519060200190610f7d929190611abd565b50604082015181600201556060820151816003019080519060200190610fa4929190611abd565b506080820151816004019080519060200190610fc1929190611abd565b5060a0820151816005019080519060200190610fde929190611abd565b5060c0820151816006019080519060200190610ffb929190611abd565b5060e082015181600701556101008201518160080160006101000a81548173ffffffffffffffffffffffffffffffffffffffff021916908373ffffffffffffffffffffffffffffffffffffffff1602179055509050507f60af05dc9f339cd5adfd58a8655d80147662d8284b245589991b59e2ad502ab1600054878787853360405180878152602001806020018660ff1660ff16815260200180602001806020018573ffffffffffffffffffffffffffffffffffffffff1673ffffffffffffffffffffffffffffffffffffffff168152602001848103845289818151815260200191508051906020019080838360005b838110156111065780820151818401526020810190506110eb565b50505050905090810190601f1680156111335780820380516001836020036101000a031916815260200191505b50848103835287818151815260200191508051906020019080838360005b8381101561116c578082015181840152602081019050611151565b50505050905090810190601f1680156111995780820380516001836020036101000a031916815260200191505b50848103825286818151815260200191508051906020019080838360005b838110156111d25780820151818401526020810190506111b7565b50505050905090810190601f1680156111ff5780820380516001836020036101000a031916815260200191505b50995050505050505050505060405180910390a1505050505050565b6001600081548092919060010191905055506040518060a0016040528060015481526020018381526020018281526020013373ffffffffffffffffffffffffffffffffffffffff16815260200160008152506003600060015481526020019081526020016000206000820151816000015560208201518160010190805190602001906112a8929190611abd565b5060408201518160020190805190602001906112c5929190611abd565b5060608201518160030160006101000a81548173ffffffffffffffffffffffffffffffffffffffff021916908373ffffffffffffffffffffffffffffffffffffffff160217905550608082015181600401559050505050565b60008111801561133057506000548110155b61133957600080fd5b611341611b3d565b600260008381526020019081526020016000206040518061012001604052908160008201548152602001600182018054600181600116156101000203166002900480601f0160208091040260200160405190810160405280929190818152602001828054600181600116156101000203166002900480156114035780601f106113d857610100808354040283529160200191611403565b820191906000526020600020905b8154815290600101906020018083116113e657829003601f168201915b5050505050815260200160028201548152602001600382018054600181600116156101000203166002900480601f0160208091040260200160405190810160405280929190818152602001828054600181600116156101000203166002900480156114af5780601f10611484576101008083540402835291602001916114af565b820191906000526020600020905b81548152906001019060200180831161149257829003601f168201915b50505050508152602001600482018054600181600116156101000203166002900480601f0160208091040260200160405190810160405280929190818152602001828054600181600116156101000203166002900480156115515780601f1061152657610100808354040283529160200191611551565b820191906000526020600020905b81548152906001019060200180831161153457829003601f168201915b50505050508152602001600582018054600181600116156101000203166002900480601f0160208091040260200160405190810160405280929190818152602001828054600181600116156101000203166002900480156115f35780601f106115c8576101008083540402835291602001916115f3565b820191906000526020600020905b8154815290600101906020018083116115d657829003601f168201915b50505050508152602001600682018054600181600116156101000203166002900480601f0160208091040260200160405190810160405280929190818152602001828054600181600116156101000203166002900480156116955780601f1061166a57610100808354040283529160200191611695565b820191906000526020600020905b81548152906001019060200180831161167857829003601f168201915b50505050508152602001600782015481526020016008820160009054906101000a900473ffffffffffffffffffffffffffffffffffffffff1673ffffffffffffffffffffffffffffffffffffffff1673ffffffffffffffffffffffffffffffffffffffff16815250509050600081610100015190508073ffffffffffffffffffffffffffffffffffffffff166108fc349081150290604051600060405180830381858888f19350505050158015611750573d6000803e3d6000fd5b50348260e00151018260e0018181525050816002600085815260200190815260200160002060008201518160000155602082015181600101908051906020019061179b929190611abd565b506040820151816002015560608201518160030190805190602001906117c2929190611abd565b5060808201518160040190805190602001906117df929190611abd565b5060a08201518160050190805190602001906117fc929190611abd565b5060c0820151816006019080519060200190611819929190611abd565b5060e082015181600701556101008201518160080160006101000a81548173ffffffffffffffffffffffffffffffffffffffff021916908373ffffffffffffffffffffffffffffffffffffffff160217905550905050505050565b6000811061188157600080fd5b6000600190505b600154811015611aad576002600082815260200190815260200160002060080160009054906101000a900473ffffffffffffffffffffffffffffffffffffffff1673ffffffffffffffffffffffffffffffffffffffff166003600083815260200190815260200160002060030160009054906101000a900473ffffffffffffffffffffffffffffffffffffffff1673ffffffffffffffffffffffffffffffffffffffff161415611aa0577f4e0538327793c70229cea5930f493952bc0552fd470efb498aaeed50e520b0316003600083815260200190815260200160002060010160036000848152602001908152602001600020600201604051808060200180602001838103835285818154600181600116156101000203166002900481526020019150805460018160011615610100020316600290048015611a0c5780601f106119e157610100808354040283529160200191611a0c565b820191906000526020600020905b8154815290600101906020018083116119ef57829003601f168201915b5050838103825284818154600181600116156101000203166002900481526020019150805460018160011615610100020316600290048015611a8f5780601f10611a6457610100808354040283529160200191611a8f565b820191906000526020600020905b815481529060010190602001808311611a7257829003601f168201915b505094505050505060405180910390a15b8080600101915050611888565b5050565b60015481565b60005481565b828054600181600116156101000203166002900490600052602060002090601f016020900481019282601f10611afe57805160ff1916838001178555611b2c565b82800160010185558215611b2c579182015b82811115611b2b578251825591602001919060010190611b10565b5b509050611b399190611b9f565b5090565b6040518061012001604052806000815260200160608152602001600081526020016060815260200160608152602001606081526020016060815260200160008152602001600073ffffffffffffffffffffffffffffffffffffffff1681525090565b611bc191905b80821115611bbd576000816000905550600101611ba5565b5090565b9056fea265627a7a72315820ab85764ef7bb453e34aff762494a550451f46173bc30902b7ec7bfe5913cba6d64736f6c634300050c0032",
  "source": "pragma solidity ^0.5.0;\n\ncontract SocialNetwork {\n\n    uint public postcount=0;\n    uint public subjectcount=0;\n    struct Post{\n        uint id;\n        string sname;\n        uint age;\n        //string subject;\n        string degree;\n        string resume;\n        string photo;\n        string content;\n        uint tipAmount;\n        address payable author;\n    }\n    // struct HashFiles{\n    //     string resume;\n    //     string photo;\n    // }\n    event PostCreated(\n        uint id,\n        string sname,\n        uint8 age,\n        //string subject,\n        string degree,\n        string content,\n        //uint tipAmount,\n        address payable author   );\n\n\n\n        struct Subject{\n            uint id;\n            string subjectname;\n            string notehash;\n            address payable creator;\n            uint tipAmount;\n        }\n        event subjectevent(\n            string subjectname,\n            string notehash\n        );\n\n    mapping(uint=>Post) public posts;\n    mapping(uint=>Subject) public subjects;\n    function createPost(\n        string memory sname,\n        uint8 age,\n        string memory degree,\n        string memory resume,\n        string memory photo,\n        string memory content) public\n    {\n        require(bytes(content).length > 0);\n        postcount++;\n        posts[postcount] = Post(postcount,sname,age,degree,resume,photo,content,0,msg.sender);\n        emit PostCreated(postcount,sname,age,degree,content,msg.sender);\n\n    }\n\n    function subjectupload(string memory name,string memory notehash) public{\n        subjectcount++;\n        subjects[subjectcount] = Subject(subjectcount,name,notehash,msg.sender,0);\n\n\n\n    }\n    function displayprofiles(uint id) public{\n        require(id < 0);\n        for (uint i = 1; i < subjectcount ;i++)\n        {\n            if(subjects[i].creator==posts[i].author)\n                emit subjectevent(subjects[i].subjectname,subjects[i].notehash);\n\n        }\n\n    }\n    // function uploadFiles(\n    //     //write a modifier msg.sender should have uploded details\n    //     string memory _photohash,\n    //     string memory _resumehash) public\n    // {\n    //     hashfiles[msg.sender] = HashFiles(_resumehash,_photohash);\n\n    // }\n\n    function tipPost(uint _id) public payable {\n        require(_id > 0 && _id >= postcount);\n        Post memory _post = posts[_id];\n        address payable _author = _post.author;\n\n        //pay the author\n        address(_author).transfer(msg.value);\n        _post.tipAmount =_post.tipAmount+msg.value;\n        posts[_id] =_post;\n    }\n}",
  "sourcePath": "/home/sanjay/hackthon/teacherbasic/src/contracts/SocialNetwork.sol",
  "compiler": {
    "name": "solc",
    "version": "0.5.12+commit.7709ece9.Emscripten.clang"
  },
  "schemaVersion": "3.0.19",
  "updatedAt": "2020-01-12T04:18:22.805Z",
  "networkType": "ethereum",
  "devdoc": {
    "methods": {}
  },
  "userdoc": {
    "methods": {}
  }
}